S00C00006D61696E2E7372656373
S113000040150020550A0000B50A0000B50A00009A
S113001000000000000000000000000000000000DC
S1130020000000000000000000000000C5310000D6
S11300300000000000000000E5320000373300003B
S1130040550A0000550A0000550A0000550A000030
S113005000000000550A0000550A0000550A00007F
S1130060550A0000550A0000550A0000550A000010
S1130070550A0000550A0000550A0000550A000000
S1130080550A0000550A0000550A0000550A0000F0
S1130090550A0000550A0000550A0000000000003F
S11300A0550A0000550A0000550A0000550A0000D0
S11300B0550A000000000000550A00009D080000D9
S1130400FFFFFFFFFFFFFFFFFFFFFFFFFEFFFFFFF9
S113041080B582B000AF0200FB1D1A70FB1D1B7873
S11304201A001F23134001229A40034B1A60C0464E
S1130430BD4602B080BDC04600E100E080B500AF1B
S1130440012000F0A7FC0200044B1A60034B1B6858
S1130450002B00D1FEE7C046BD4680BD0CE0FF1F67
S113046080B500AF044B03221A70034B00225A706C
S1130470C046BD4680BDC0460040064080B500AFC2
S1130480184A194BD3581749802212011343164AAC
S11304908B50164B0422FF32DA60144B0422FF32D5
S11304A01A63134B5A69124B08218A435A61104B41
S11304B05A690F4B0F490A405A611F20FFF7A8FFE2
S11304C00A4BDA68094BA02109030A43DA60074B97
S11304D01A6B064BA02109030A431A63C046BD46A2
S11304E080BDC046007004403810000000B00440D5
S11304F080F00F40FFEFFFFF80B586B000AF78605B
S11305000F4B1B78DBB27B610E4B1B78DBB23B617C
S11305100D4B1B78DBB2FB607B69D8B23B69DBB265
S11305201A1C9200D318DB18DAB2FB68DBB2D318BA
S1130530DBB2190003F045FA642001F0A5FCDFE703
S11305400AE0FF1F08E0FF1F09E0FF1F80B584B029
S113055000AF7860154B1B78DBB2002B1FD0012352
S1130560FB60134B1B68012252421100180000F07B
S1130570BBFE0300012B12D10E4B1B78DBB2622BA6
S113058006D80C4B1B78DBB20133DAB2094B1A7074
S1130590074B186800230022002100F072FCFA23A4
S11305A05B00180001F070FCD4E7C04608E0FF1FB0
S11305B00CE0FF1F0AE0FF1F80B584B000AF786035
S11305C0154B1B78DBB2012B1FD90223FB60134BA5
S11305D01B68012252421100180000F085FE03003E
S11305E0012B12D10E4B1B78DBB2622B06D80C4BBD
S11305F01B78DBB20133DAB2094B1A70074B186867
S113060000230022002100F03CFCFA235B001800C8
S113061001F03AFCD4E7C04608E0FF1F0CE0FF1FDE
S11306200AE0FF1F80B584B000AF7860154B1B78DB
S1130630DBB2022B1FD90323FB60134B1B6801227F
S113064052421100180000F04FFE0300012B12D19A
S11306500E4B1B78DBB2622B06D80C4B1B78DBB23B
S11306600133DAB2094B1A70074B186800230022D1
S1130670002100F006FCFA235B00180001F004FCE2
S1130680D4E7C04608E0FF1F0CE0FF1F0AE0FF1F8D
S113069080B584B000AF7860154B1B78DBB2032BB8
S11306A01FD90423FB60134B1B6801225242110023
S11306B0180000F019FE0300012B12D10E4B1B7819
S11306C0DBB2622B06D80C4B1B78DBB20133DAB2F7
S11306D0094B1A70074B186800230022002100F010
S11306E0D0FBFA235B00180001F0CEFBD4E7C04630
S11306F008E0FF1F0CE0FF1F0AE0FF1F80B582B077
S113070000AF7860144B1B78DBB2002B1DD0134B69
S11307101B68012252421100180000F0E5FD03009D
S1130720012B12D10E4B1B78DBB2002B06D00C4BE5
S11307301B78DBB2013BDAB2094B1A70074B18681D
S113074000230022002100F09CFBFA235B00180028
S113075001F09AFBD6E7C04609E0FF1F0CE0FF1F3B
S11307600AE0FF1F80B582B000AF7860144B1B789D
S1130770DBB2012B1DD9134B1B680122524211001D
S1130780180000F0B1FD0300012B12D10E4B1B78B1
S1130790DBB2002B06D00C4B1B78DBB2013BDAB288
S11307A0094B1A70074B186800230022002100F03F
S11307B068FBFA235B00180001F066FBD6E7C0462D
S11307C009E0FF1F0CE0FF1F0AE0FF1F80B582B0A5
S11307D000AF7860144B1B78DBB2022B1DD9134B8E
S11307E01B68012252421100180000F07DFD030035
S11307F0012B12D10E4B1B78DBB2002B06D00C4B15
S11308001B78DBB2013BDAB2094B1A70074B18684C
S113081000230022002100F034FBFA235B001800BF
S113082001F032FBD6E7C04609E0FF1F0CE0FF1FD2
S11308300AE0FF1F80B582B000AF7860144B1B78CC
S1130840DBB2032B1DD9134B1B680122524211004A
S1130850180000F049FD0300012B12D10E4B1B7848
S1130860DBB2002B06D00C4B1B78DBB2013BDAB2B7
S1130870094B1A70074B186800230022002100F06E
S113088000FBFA235B00180001F0FEFAD6E7C0462D
S113089009E0FF1F0CE0FF1F0AE0FF1F80B500AF57
S11308A01F4AA023D25880235B01134018D01D4B4C
S11308B01B78DBB20133DAB21A4B1A70194B1B786E
S11308C0DBB2052B02D1174B00221A70144AA02365
S11308D0D3581349802252011343A0228B501CE0A9
S11308E00F4AA023D3580822134016D00E4B1B786E
S11308F0DBB20133DAB20C4B1A700B4B1B78DBB250
S1130900052B02D1084B00221A70054AA023D358A4
S1130910034908221343A0228B50C046BD4680BD24
S113092000B0044009E0FF1F08E0FF1F80B582B05B
S113093002AFFFF7A3FDFFF793FD02F027FDFFF7DA
S11309407DFD314A88235B010021D1502F49304875
S113095000230193012300930023502201F012F994
S11309602C492D4800230193012300930023502296
S113097001F008F929492A4800230193012300932F
S11309800023502201F0FEF8264927480023019352
S1130990012300930023502201F0F4F82349244852
S11309A000230193012300930023502201F0EAF86D
S11309B0204921480023019301230093002350225E
S11309C001F0E0F81D491E48002301930123009320
S11309D00023502201F0D6F81A491B480023019342
S11309E0012300930023502201F0CCF81749184842
S11309F000230193012300930023502201F0C2F845
S1130A0001F068FAFEE7C04600700440343C000080
S1130A10F9040000443C00004D050000503C000077
S1130A20B90500005C3C000025060000683C00009D
S1130A3091060000743C0000FD060000843C0000A8
S1130A4065070000943C0000CD070000A43C0000B2
S1130A503508000080B582B000AF114B7B60114BAC
S1130A603B6007E07A68131D7B603B68191D3960A1
S1130A7012681A603A680C4B9A42F3D30B4B3B60F2
S1130A8004E03B681A1D3A6000221A603A68084B79
S1130A909A42F6D3FFF74AFFC046BD4602B080BD76
S1130AA0443D000000E0FF1F08E0FF1F08E0FF1FB7
S1130AB03C11002080B500AFFEE7C04680B582B08F
S1130AC000AF78607B6808331A007B685A607B68E3
S1130AD0012252429A607B6808331A007B68DA600C
S1130AE07B6808331A007B681A617B6800221A60ED
S1130AF0C046BD4602B080BD80B582B000AF78600C
S1130B007B6800221A61C046BD4602B080BD80B534
S1130B1084B000AF786039607B685B68FB603B68D9
S1130B20FA685A60FB689A683B689A60FB689B683D
S1130B303A685A60FB683A689A603B687A681A6156
S1130B407B681B685A1C7B681A60C046BD4604B0AB
S1130B5080BD80B584B000AF786039603B681B68A5
S1130B60BB60BB68013303D17B681B69FB600CE08D
S1130B707B680833FB6002E0FB685B68FB60FB6832
S1130B805B681B68BA689A42F6D2FB685A683B688D
S1130B905A603B685B683A689A603B68FA689A6096
S1130BA0FB683A685A603B687A681A617B681B681C
S1130BB05A1C7B681A60C046BD4604B080BD80B52F
S1130BC084B000AF78607B681B69FB607B685B68FE
S1130BD07A6892689A607B689B687A6852685A60FF
S1130BE0FB685B687A689A4203D17B689A68FB6801
S1130BF05A607B6800221A61FB681B685A1EFB68F6
S1130C001A60FB681B681800BD4604B080BD000074
S1130C1080B584B000AF786039607B68FB60FB68A6
S1130C20002B01D172B6FEE702F028FBFB681A68BC
S1130C30FB68D96BFB681B6C4B43D218FB685A608A
S1130C40FB6800229A63FB681A68FB689A60FB6879
S1130C501A68FB68DB6B591EFB681B6C4B43D2188C
S1130C60FB68DA60FB684422FF219954FB68452243
S1130C70FF2199543B68002B0DD1FB681B69002BA5
S1130C8013D0FB681033180001F094FB031E0CD042
S1130C9002F0E4FA09E0FB6810331800FFF70EFFD6
S1130CA0FB6824331800FFF709FF02F0F9FA012367
S1130CB01800BD4604B080BD90B58BB002AFF8609B
S1130CC0B960FB1D1A70FB68002B01D172B6FEE7F8
S1130CD0BB68002B02D10023FB6103E0FB68BA6808
S1130CE05343FB61FB694833180002F029F9030000
S1130CF0BB61BB69002B0CD0BB6948337B61FB1D16
S1130D001C787A69B968F868BB690093230000F01D
S1130D1005F8BB691800BD4609B090BD80B584B024
S1130D2000AFF860B9607A601A00FB1C1A70BB68E7
S1130D30002B03D1BB69BA691A6002E0BB697A6807
S1130D401A60BB69FA68DA63BB69BA681A64BB697A
S1130D5001211800FFF75CFFC046BD4604B080BD0A
S1130D6080B582B000AF78607B68002B0ED07B68C2
S1130D7000225A607B6800221A607B680022DA60D5
S1130D80786800230022002100F07BF8C046BD46AD
S1130D9002B080BD80B586B000AF0200FB1D1A70A2
S1130DA001237B6100233B61FB1D1A7839697B6950
S1130DB01800FFF781FF0300FB60FB681800FFF7D2
S1130DC0CFFFFB681800BD4606B080BD90B585B066
S1130DD000AF78607B68BB60BB68002B01D172B642
S1130DE0FEE7BB685C6801F089FC03009C4211D1FA
S1130DF0BB68DB685A1EBB68DA60BB68DB68002B23
S1130E0005D1B86800230022002100F03AF801233C
S1130E10FB6001E00023FB60FB681800BD4605B0E1
S1130E2090BD90B585B000AF786039607B68BB60D9
S1130E30BB68002B01D172B6FEE7BB685C6801F0A9
S1130E405DFC03009C4207D1BB68DB685A1CBB688D
S1130E50DA600123FB600FE03A68BB6811001800F8
S1130E6000F042FA0300FB60FB68002B04D0BB686F
S1130E70DB685A1CBB68DA60FB681800BD4605B025
S1130E8090BD80B58AB000AFF860B9607A603B600D
S1130E9000237B62FB683B623B6A002B01D172B684
S1130EA0FEE7BB68002B03D13B6A1B6C002B01D10E
S1130EB0012300E00023002B01D172B6FEE73B685A
S1130EC0022B03D13B6ADB6B012B01D1012300E030
S1130ED00023002B01D172B6FEE702F0CFF93B6A82
S1130EE09A6B3B6ADB6B9A4202D33B68022B1ED19E
S1130EF03A68B9683B6A180000F07FFC0300FB61A4
S1130F003B6A5B6A002B09D03B6A2433180001F06A
S1130F1051FA031E07D002F0A1F904E0FB69002B8B
S1130F2001D002F09BF902F0BBF901235BE07B687E
S1130F30002B03D102F0B4F9002354E07B6A002BA8
S1130F4006D11423FB18180001F000FB01237B6277
S1130F5002F0A6F901F002F802F090F93B6A44228B
S1130F609B5C5BB2013303D13B6A44220021995458
S1130F703B6A45229B5C5BB2013303D13B6A452249
S1130F800021995402F08CF93A1D1423FB18110026
S1130F90180001F0EFFA031E1ED13B6A180000F09E
S1130FA048FD031E11D03B6A10337A681100180003
S1130FB001F0B4F93B6A180000F0B0FC00F0DAFF6D
S1130FC0031E8AD102F04AF987E73B6A180000F051
S1130FD0A5FC00F0CFFF80E73B6A180000F09EFC00
S1130FE000F0C8FF00231800BD460AB080BD90B5CC
S1130FF089B000AFF860B9607A603B60FB68BB61A0
S1131000BB69002B01D172B6FEE7BB68002B03D18C
S1131010BB691B6C002B01D1012300E00023002BD2
S113102001D172B6FEE73B68022B03D1BB69DB6BCF
S1131030012B01D1012300E00023002B01D172B662
S1131040FEE702F045F903007B61BB699A6BBB695B
S1131050DB6B9A4202D33B68022B2ED113243B193B
S1131060BA694521525C1A703A68B968BB691800BC
S113107000F0C3FB3B191B785BB2013311D1BB6990
S11310805B6A002B16D0BB692433180001F092F977
S1131090031E0FD07B68002B0CD07B6801221A60E2
S11310A008E01323FB181B780133DBB259B2BB6988
S11310B0452299540123FB6101E00023FB617B6914
S11310C0180002F00BF9FB691800BD4609B090BD89
S11310D080B588B000AF786039607B68BB61BB695C
S11310E0002B01D172B6FEE7BB691B6C002B01D04B
S11310F072B6FEE7BB691B68002B03D1BB695B6852
S1131100002B01D1012300E00023002B01D172B692
S1131110FEE702F0DDF803007B61BB699B6B3B617A
S1131120BB69DB6B3A699A422CD20F203B18BA692F
S11311304521525C1A703B695A1CBB699A633B187F
S11311401B785BB2013311D1BB695B6A002B16D0EB
S1131150BB692433180001F02DF9031E0FD03B683E
S1131160002B0CD03B6801221A6008E00F23FB1807
S11311701B780133DBB259B2BB6945229954012370
S1131180FB6101E00023FB617B69180002F0A6F813
S1131190FB691800BD4608B080BD80B58AB000AFB9
S11311A0F860B9607A6000237B62FB683B623B6A4B
S11311B0002B01D172B6FEE7BB68002B03D13B6A5A
S11311C01B6C002B01D1012300E00023002B01D173
S11311D072B6FEE702F052F83B6A9B6BFB61FB6957
S11311E0002B1AD0BA683B6A1100180000F070FB9B
S11311F0FB695A1E3B6A9A633B6A1B69002B08D041
S11312003B6A1033180001F0D5F8031E01D002F038
S113121025F802F045F8012362E07B68002B03D136
S113122002F03EF800235BE07B6A002B06D1142316
S1131230FB18180001F08AF901237B6202F030F8F0
S113124000F08CFE02F01AF83B6A44229B5C5BB20D
S1131250013303D13B6A4422002199543B6A45225D
S11312609B5C5BB2013303D13B6A45220021995454
S113127002F016F83A1D1423FB181100180001F0AF
S113128079F9031E1ED13B6A180000F0A5FB031E6A
S113129011D03B6A24337A681100180001F03EF83B
S11312A03B6A180000F03AFB00F064FE031E91D183
S11312B001F0D4FF8EE73B6A180000F02FFB00F02A
S11312C059FE87E73B6A180000F028FB00F052FE45
S11312D03B6A180000F080FB031E00D17AE700236C
S11312E01800BD460AB080BD80B58AB000AF7860F2
S11312F0396000237B627B68FB610023BB610023B0
S11313003B62FB69002B01D172B6FEE7FB691B6CE3
S1131310002B01D072B6FEE701F0B0FFFB699B6BB6
S11313207B617B69002B1DD07B695A1EFB699A6324
S1131330FB691B68002B04D101F042FB0200FB692E
S11313405A60FB691B69002B08D0FB691033180035
S113135001F030F8031E01D001F080FF01F0A0FF7E
S113136001238BE03B68002B08D13B6A002B01D0A2
S113137072B6FEE701F094FF00237FE07B6A002B46
S113138006D10823FB18180001F0E0F801237B6262
S113139001F086FF00F0E2FD01F070FFFB694422DA
S11313A09B5C5BB2013303D1FB6944220021995455
S11313B0FB6945229B5C5BB2013303D1FB69452287
S11313C00021995401F06CFF3A000823FB18110026
S11313D0180001F0CFF8031E2ED1FB69180000F0AD
S11313E0FBFA031E21D0FB691B68002B0AD101F014
S11313F045FFFB695B68180001F08EF903003B624E
S113140001F04EFFFB6924333A681100180000F024
S113141085FFFB69180000F081FA00F0ABFD031EA4
S113142000D079E701F01AFF76E7FB69180000F0B5
S113143075FA00F09FFD6FE7FB69180000F06EFA83
S113144000F098FDFB69180000F0C6FA031E00D1F5
S113145062E73B6A002B10D001F010FFFB69180013
S113146000F0B5F903003B61FB695B683A69110060
S1131470180001F01BFA01F013FF00231800BD4609
S11314800AB080BD80B58AB000AFF860B9607A60F8
S113149000237B62FB683B623B6A002B01D172B67E
S11314A0FEE7BB68002B03D13B6A1B6C002B01D108
S11314B0012300E00023002B01D172B6FEE701F006
S11314C0DDFE3B6A9B6BFB61FB69002B1CD03B6A16
S11314D0DB68BB61BA683B6A1100180000F0F8F9D8
S11314E03B6ABA69DA603B6A5B6A002B08D03B6AE4
S11314F02433180000F05EFF031E01D001F0AEFE9D
S113150001F0CEFE012362E07B68002B03D101F0E1
S1131510C7FE00235BE07B6A002B06D11023FB1877
S1131520180001F013F801237B6201F0B9FE00F00A
S113153015FD01F0A3FE3B6A44229B5C5BB20133C0
S113154003D13B6A4422002199543B6A45229B5CA7
S11315505BB2013303D13B6A45220021995401F067
S11315609FFE3A1D1023FB181100180001F002F829
S1131570031E1ED13B6A180000F02EFA031E11D080
S11315803B6A24337A681100180000F0C7FE3B6AF6
S1131590180000F0C3F900F0EDFC031E8FD101F038
S11315A05DFE8CE73B6A180000F0B8F900F0E2FC3D
S11315B085E73B6A180000F0B1F900F0DBFC3B6AF8
S11315C0180000F009FA031E00D178E70023180080
S11315D0BD460AB080BD90B58BB000AFF860B9606D
S11315E07A60FB683B623B6A002B01D172B6FEE76E
S11315F0BB68002B03D13B6A1B6C002B01D1012378
S113160000E00023002B01D172B6FEE701F060FE7A
S11316100300FB613B6A9B6BBB61BB69002B32D04F
S113162017243B193A6A4421525C1A70BA683B6A1F
S11316301100180000F04CF9BB695A1E3B6A9A630A
S11316403B191B785BB2013311D13B6A1B69002B38
S113165016D03B6A1033180000F0ACFE031E0FD006
S11316607B68002B0CD07B6801221A6008E01723EA
S1131670FB181B780133DBB259B23B6A44229954FC
S113168001237B6201E000237B62FB69180001F007
S113169025FE7B6A1800BD460BB090BD80B586B0B0
S11316A000AF786039607B683B613B69002B01D1F6
S11316B072B6FEE73B68002B03D13B691B6C002B21
S11316C001D1012300E00023002B01D172B6FEE713
S11316D03B691B6C002B01D172B6FEE701F0F8FDEB
S11316E00300FB603B699B6B002B0ED03B69DB68FE
S11316F0BB603A683B691100180000F0E9F83B69E7
S1131700BA68DA6001237B6101E000237B61FB6836
S1131710180001F0E3FD7B691800BD4606B080BDEA
S113172080B584B000AF78607B68002B01D172B6BD
S1131730FEE701F0A3FD7B689B6BFB6001F0B0FD4D
S1131740FB681800BD4604B080BD80B584B000AF0E
S113175078607B68FB60FB68002B01D172B6FEE702
S113176001F08CFDFB68DA6BFB689B6BD31ABB60E2
S113177001F096FDBB681800BD4604B080BD80B57D
S113178084B000AF78607B68002B01D172B6FEE7AD
S11317907B689B6BFB60FB681800BD4604B080BD92
S11317A080B584B000AF78607B68FB60FB68002B79
S11317B001D172B6FEE7FB68180000F0B9F9FB68C6
S11317C0180001F04BFCC046BD4604B080BD80B596
S11317D084B000AF78607B685B6A002B06D07B68BE
S11317E01B6B1B680522D31AFB6001E00023FB601E
S11317F0FB681800BD4604B080BD80B586B000AF5C
S1131800F860B9607A6000237B61FB689B6B3B6185
S1131810FB681B6C002B0ED1FB681B68002B4ED1A0
S1131820FB685B68180000F0E5FF03007B61FB6860
S113183000225A6043E07B68002B19D1FB6898684A
S1131840FB681A6CBB68190002F064F9FB689A68BB
S1131850FB681B6CD218FB689A60FB689A68FB688B
S11318605B689A422BD3FB681A68FB689A6026E08F
S1131870FB68D868FB681A6CBB68190002F04AF967
S1131880FB68DA68FB681B6C5B42D218FB68DA60A1
S1131890FB68DA68FB681B689A4207D2FB685A68DF
S11318A0FB681B6C5B42D218FB68DA607B68022B16
S11318B005D13B69002B02D03B69013B3B613B698D
S11318C05A1CFB689A637B691800BD4606B080BD4C
S11318D080B582B000AF786039607B681B6C002BE8
S11318E018D07B68DA687B681B6CD2187B68DA6076
S11318F07B68DA687B685B689A4203D37B681A6802
S11319007B68DA607B68D9687B681A6C3B6818006E
S113191002F000F9C046BD4602B080BD80B584B077
S113192000AF786001F0AAFC0F23FB187A68452108
S1131930525C1A7013E07B685B6A002B16D07B68DC
S11319402433180000F036FD031E01D000F05CFEC5
S11319500F217B181B78013BDAB27B181A700F2316
S1131960FB181B785BB2002BE5DC00E0C0467B680B
S11319704522FF21995401F093FC01F07FFC0E23D2
S1131980FB187A684421525C1A7013E07B681B6967
S1131990002B16D07B681033180000F00BFD031EDB
S11319A001D000F031FE0E217B181B78013BDAB226
S11319B07B181A700E23FB181B785BB2002BE5DC36
S11319C000E0C0467B684422FF21995401F068FC82
S11319D0C046BD4604B080BD80B584B000AF786019
S11319E001F04CFC7B689B6B002B02D10123FB6054
S11319F001E00023FB6001F053FCFB681800BD46C6
S1131A0004B080BD80B584B000AF78607B68002BE3
S1131A1001D172B6FEE77B689B6B002B02D10123D8
S1131A20FB6001E00023FB60FB681800BD4604B0C6
S1131A3080BD80B584B000AF786001F01FFC7B6886
S1131A409A6B7B68DB6B9A4202D10123FB6001E055
S1131A500023FB6001F024FCFB681800BD4604B0C1
S1131A6080BD80B584B000AF78607B68002B01D165
S1131A7072B6FEE77B689A6B7B68DB6B9A4202D195
S1131A800123FB6001E00023FB60FB681800BD46F6
S1131A9004B080BD80B584B000AF786039600023A5
S1131AA0FB6015E00E4BFA68D200D358002B0CD122
S1131AB00B4BFA68D2003968D150094AFB68DB0045
S1131AC0D31804337A681A6006E0FB680133FB60BC
S1131AD0FB68072BE6D9C046C046BD4604B080BDAE
S1131AE010E0FF1F80B584B000AF78600023BB60B6
S1131AF00023FB6011E00D4AFB68DB00D3180433BC
S1131B001B687A689A4205D1084BFA68D200D35808
S1131B10BB6005E0FB680133FB60FB68072BEAD977
S1131B20BB681800BD4604B080BDC04610E0FF1F6E
S1131B3080B584B000AF78600023FB6018E0104AE1
S1131B40FB68DB00D31804331B687A689A420CD113
S1131B500B4BFA68D2000021D150094AFB68DB0024
S1131B60D318043300221A6006E0FB680133FB60DB
S1131B70FB68072BE3D9C046C046BD4604B080BD10
S1131B8010E0FF1F90B58DB004AFF860B9603B6002
S1131B90BB1D1A80BB1D1B889B00180001F0D0F9E7
S1131BA003007B617B69002B10D0502001F0C8F941
S1131BB00300FB61FB69002B03D0FB697A691A639C
S1131BC006E07B69180001F049FA01E00023FB619B
S1131BD0FB69002B16D0BB1D1A883C68B968F868ED
S1131BE000230393FB6902937B6B01933B6B00938C
S1131BF0230000F00FF8FB69180000F085F80123BA
S1131C00BB6102E001235B42BB61BB691800BD46B6
S1131C1009B090BD80B586B000AFF860B9607A6055
S1131C203B60BB6A1A6B7B6836498C4663449B00F5
S1131C30D3183B613B69072293433B613B6907220D
S1131C40134001D072B6FEE700237B6113E0BA684B
S1131C507B69D3181878BA6A34217B69D3185B1866
S1131C60021C1A70BA687B69D3181B78002B06D043
S1131C707B6901337B617B69092BE8D900E0C046AD
S1131C80BB6A3D22002199543B6A042B01D90423E9
S1131C903B62BB6A3A6ADA62BB6A3A6A1A64BB6A32
S1131CA000225A64BB6A04331800FEF725FFBB6A9E
S1131CB018331800FEF720FFBB6ABA6A1A613B6A40
S1131CC00522D21ABB6A9A61BB6ABA6A5A62BB6AB3
S1131CD000229A64BB6A4C22002199543A68F9683C
S1131CE03B69180001F02CFA0200BB6A1A607B6A97
S1131CF0002B02D07B6ABA6A1A60C046BD4606B0A1
S1131D0080BDC046FFFFFF3F80B582B000AF786062
S1131D1001F0B4FA284B1B685A1C274B1A60274B56
S1131D201B68002B09D1254B7A681A60224B1B686B
S1131D30012B10D100F082FC0DE0214B1B68002B1D
S1131D4009D11E4B1B68DA6A7B68DB6A9A4202D8A7
S1131D501A4B7A681A601B4B1B685A1C194B1A6081
S1131D607B68DA6A184B1B689A4203D97B68DA6A83
S1131D70154B1A607B68DA6A13009B009B189B0062
S1131D80124A9A187B68043319001000FEF7BFFE4C
S1131D9001F086FA0A4B1B68002B08D0074B1B681E
S1131DA0DA6A7B68DB6A9A4201D201F057FAC046CC
S1131DB0BD4602B080BDC046FCE0FF1F50E0FF1FDF
S1131DC008E1FF1F18E1FF1F04E1FF1F54E0FF1F9C
S1131DD080B586B000AF7860396000237B617B6892
S1131DE0002B01D172B6FEE73B68002B01D172B61D
S1131DF0FEE7234B1B68002B01D072B6FEE700F010
S1131E00ADF8204B1B683B617B681B683A68D318AC
S1131E10FB607B681B683A699A420BD27B681B683B
S1131E20FA689A4211D2FA683B699A420DD90123A1
S1131E307B610AE07B681B68FA689A4203D3FA68FC
S1131E403B699A4201D901237B617B68FA681A6075
S1131E507B69002B06D0FA683B69D31A002118006D
S1131E6001F02AF800F086F80300BB60BB68002B81
S1131E7001D101F0F3F9C046BD4606B080BDC046AD
S1131E8024E1FF1F00E1FF1F80B584B000AF78603C
S1131E900023FB607B68002B10D00D4B1B68002BCC
S1131EA001D072B6FEE700F059F87B6800211800F3
S1131EB001F002F800F05EF80300FB60FB68002B01
S1131EC001D101F0CBF9C046BD4604B080BDC04687
S1131ED024E1FF1F80B584B002AF13491348144BAB
S1131EE001930023009300235022FFF74BFE0300CD
S1131EF07B607B68012B0DD172B60E4B01225242DE
S1131F001A600D4B01221A600C4B00221A6001F07A
S1131F1072F904E07B68013301D172B6FEE7C04672
S1131F20BD4602B080BDC046B43C00001D26000082
S1131F3020E1FF1F1CE1FF1F08E1FF1F00E1FF1F5D
S1131F4080B500AF72B6044B00221A6001F076F936
S1131F50C046BD4680BDC04608E1FF1F80B500AF46
S1131F60034B1B685A1C024B1A60C046BD4680BD19
S1131F7024E1FF1F80B584B000AF0023FB60002381
S1131F80BB603A4B1B68002B01D172B6FEE701F02F
S1131F9075F9364B1B685A1E344B1A60334B1B6859
S1131FA0002B5BD1324B1B68002B57D02FE0314BF9
S1131FB0DB68DB68FB60FB6818331800FEF7FFFD85
S1131FC0FB6804331800FEF7FAFDFB68DA6A2A4B53
S1131FD01B689A4203D9FB68DA6A274B1A60FB68CC
S1131FE0DA6A13009B009B189B00244A9A18FB682A
S1131FF0043319001000FEF78AFDFB68DA6A204BEF
S11320001B68DB6A9A4202D31E4B01221A60194BE9
S11320101B68002BCBD1FB68002B01D000F04BFBDD
S1132020194B1B687B607B68002B0FD000F070F8A5
S1132030031E02D0134B01221A607B68013B7B60B4
S11320407B68002BF2D1104B00221A600D4B1B68E9
S1132050002B03D00123BB6001F000F901F020F94B
S1132060BB681800BD4604B080BDC04624E1FF1F14
S1132070FCE0FF1FE8E0FF1F04E1FF1F54E0FF1F27
S113208050E0FF1F10E1FF1F0CE1FF1F80B582B07D
S113209000AF044B1B687B607B681800BD4602B030
S11320A080BDC04600E1FF1F80B582B000AF0023B1
S11320B07B60044B1B683B603B681800BD4602B064
S11320C080BDC04600E1FF1F80B500AF024B1B6816
S11320D01800BD4680BDC046FCE0FF1F80B584B03B
S11320E000AF78607B68002B02D1084B1B6800E0CE
S11320F07B68FB60FB68002B01D172B6FEE7FB68CE
S113210034331800BD4604B080BDC04650E0FF1F04
S113211080B586B000AF00237B614C4B1B68002B5D
S113212000D083E04A4B1B6801333B61484B3A695A
S11321301A603B69002B17D1464B1B681B68002BA8
S113214001D072B6FEE7434B1B68FB60424B1A6832
S1132150404B1A60404BFA681A60404B1B685A1C8B
S11321603E4B1A6000F0A7FA3D4B1B683A699A424D
S11321704ED3384B1B681B68002B01D1012300E0B0
S11321800023002B04D0364B012252421A603FE058
S1132190304B1B68DB68DB68BB60BB685B687B60DB
S11321A03A697B689A4203D22D4B7A681A602FE011
S11321B0BB6804331800FEF702FDBB689B6A002B62
S11321C004D0BB6818331800FEF7F9FCBB68DA6A60
S11321D0244B1B689A4203D9BB68DA6A214B1A6004
S11321E0BB68DA6A13009B009B189B001E4A9A186E
S11321F0BB68043319001000FEF789FCBB68DA6A77
S11322001A4B1B68DB6A9A42B3D301237B61B0E7A4
S1132210164B1B68DA6A144913009B009B189B0039
S11322205B58012B07D901237B6104E0104B1B6829
S11322305A1C0F4B1A600F4B1B68002B01D0012353
S11322407B617B691800BD4606B080BD24E1FF1F99
S113225000E1FF1FE0E0FF1FE4E0FF1F14E1FF1FA8
S11322601CE1FF1F04E1FF1F54E0FF1F50E0FF1FAC
S11322700CE1FF1F10E1FF1F80B582B000AF224BBD
S11322801B68002B03D0214B01221A6037E01F4B3F
S113229000221A601E4B1B687B6007E07B68002BE2
S11322A001D172B6FEE77B68013B7B6019497A680D
S11322B013009B009B189B005B58002BEED07A68A0
S11322C013009B009B189B00124A9B183B603B68C1
S11322D05B685A683B685A603B685A683B680833D5
S11322E09A4204D13B685B685A683B685A603B6811
S11322F05B68DA68084B1A60054B7A681A60C04656
S1132300BD4602B080BDC04624E1FF1F10E1FF1F9F
S113231004E1FF1F54E0FF1F50E0FF1F80B582B0AF
S113232000AF786039607B68002B01D172B6FEE79C
S1132330084B1B6818331A007B6811001800FEF75D
S113234008FC3B680121180000F0B6FDC046BD46FC
S113235002B080BD50E0FF1F80B584B000AFF860CC
S1132360B9607A60FB68002B01D172B6FEE70F4BAF
S11323701B68002B01D172B6FEE70D4B1B68BA68CF
S1132380802109060A439A61094B1B6818331A0015
S1132390FB6811001800FEF7BAFB7B6801211800E6
S11323A000F08AFDC046BD4604B080BD24E1FF1F95
S11323B050E0FF1F80B584B000AF78607B68DB68B5
S11323C0DB68BB60BB68002B01D172B6FEE7BB685B
S11323D018331800FEF7F3FB1E4B1B68002B1DD1AE
S11323E0BB6804331800FEF7EAFBBB68DA6A1A4BD1
S11323F01B689A4203D9BB68DA6A174B1A60BB6838
S1132400DA6A13009B009B189B00144A9A18BB6855
S1132410043319001000FEF77AFB07E0BB68183399
S11324201A000F4B11001800FEF771FBBB68DA6A43
S11324300C4B1B68DB6A9A4205D90123FB600A4BEB
S113244001221A6001E00023FB60FB681800BD460E
S113245004B080BD24E1FF1F04E1FF1F54E0FF1F0F
S1132460E8E0FF1F50E0FF1F10E1FF1F80B584B0BC
S113247000AF78603960214B1B68002B01D172B624
S1132480FEE73B68802212061A437B681A607B6869
S1132490DB68FB60FB68002B01D172B6FEE77B684A
S11324A01800FEF78CFBFB6804331800FEF787FB6B
S11324B0FB68DA6A124B1B689A4203D9FB68DA6A32
S11324C00F4B1A60FB68DA6A13009B009B189B0091
S11324D00C4A9A18FB68043319001000FEF717FB26
S11324E0FB68DA6A084B1B68DB6A9A4202D9074B1D
S11324F001221A60C046BD4604B080BD24E1FF1F1E
S113250004E1FF1F54E0FF1F50E0FF1F10E1FF1F15
S113251080B582B000AF78607B68002B01D172B6C1
S1132520FEE700F0ABFE074B1A687B681A60064BA7
S11325301A687B685A6000F0B3FEC046BD4602B01C
S113254080BDC04614E1FF1F00E1FF1F80B582B0CB
S113255000AF7860054B1A687B681A60044B1A68F0
S11325607B685A60C046BD4602B080BD14E1FF1FBF
S113257000E1FF1F80B586B000AF786039607B68EA
S1132580002B01D172B6FEE73B68002B01D172B675
S1132590FEE700F073FE1A4B1B683B617B685B68C7
S11325A03A69D31AFB607B681A68164B1B689A4217
S11325B007D07B685B683A699A4202D301237B6146
S11325C016E03B681B68FA689A420CD23B681A68AA
S11325D0FB68D21A3B681A607B681800FFF7B6FFE5
S11325E000237B6104E03B6800221A6001237B61C5
S11325F000F056FE7B691800BD4606B080BDC0469B
S113260000E1FF1F14E1FF1F80B500AF024B012260
S11326101A60C046BD4680BD10E1FF1F80B582B080
S113262000AF786000F042F8034B1B68012BF9D926
S113263000F014FEF6E7C04654E0FF1F80B582B0F8
S113264000AF00237B600CE07A6813009B009B18AA
S11326509B00104A9B181800FEF730FA7B68013380
S11326607B607B68042BEFD90B4B1800FEF726FA2E
S11326700A4B1800FEF722FA094B1800FEF71EFA5F
S1132680084B054A1A60084B044A1A60C046BD4606
S113269002B080BD54E0FF1FB8E0FF1FCCE0FF1F75
S11326A0E8E0FF1FE0E0FF1FE4E0FF1F80B500AF9C
S11326B0C046BD4680BD80B582B000AF0D4B1B68DF
S11326C01B68002B01D1012300E00023002B04D060
S11326D0094B012252421A6008E0064B1B68DB6872
S11326E0DB687B607B685A68034B1A60C046BD4652
S11326F002B080BDE0E0FF1F1CE1FF1F80B582B087
S113270000AF044B1B687B607B681800BD4602B0B9
S113271080BDC04650E0FF1F80B584B000AF786034
S11327207B68BB600023FB607B68002B56D0BB68D2
S1132730DA6A2D4B1B68DB6A9A4246D2BB689B69F6
S1132740002B06DB284B1B68DB6A0522D21ABB6808
S11327509A61BB685969BB68DA6A13009B009B18CD
S11327609B00224A9B18994201D1012300E00023D7
S1132770002B22D0BB6804331800FEF720FA1A4B52
S11327801B68DA6ABB68DA62BB68DA6A184B1B68D2
S11327909A4203D9BB68DA6A154B1A60BB68DA6AD5
S11327A013009B009B189B00104A9A18BB680433C3
S11327B019001000FEF7ABF904E00B4B1B68DA6A52
S11327C0BB68DA620123FB6008E0BB681A6C064B45
S11327D01B68DB6A9A4201D20123FB60FB68180084
S11327E0BD4604B080BDC04650E0FF1F54E0FF1F4B
S11327F004E1FF1F80B584B000AF78607B68BB60E4
S11328000023FB607B68002B44D0254B1B68BA680F
S11328109A4201D072B6FEE7BB685B6C002B01D113
S113282072B6FEE7BB685B6C5A1EBB685A64BB6831
S1132830DA6ABB681B6C9A422CD0BB685B6C002BB9
S113284028D1BB6804331800FEF7B9F9BB681A6CC9
S1132850BB68DA62BB68DB6A0522D21ABB689A617C
S1132860BB68DA6A0F4B1B689A4203D9BB68DA6A01
S11328700C4B1A60BB68DA6A13009B009B189B0020
S1132880094A9A18BB68043319001000FEF73FF98F
S11328900123FB60FB681800BD4604B080BDC04640
S11328A050E0FF1F04E1FF1F54E0FF1F80B586B016
S11328B000AF786039607B683B610123FB607B6813
S11328C0002B5DD03B695B6C002B01D172B6FEE737
S11328D03B691B6C3A689A4202D93B687B6102E00F
S11328E03B691B6C7B613B69DB6A7A699A4247D01E
S11328F03B695B6CFA689A4242D1234B1B683A6984
S11329009A4201D172B6FEE73B69DB6ABB603B6960
S11329107A69DA623B699B69002B04DB7B690522D7
S1132920D21A3B699A613B695969BA6813009B00E2
S11329309B189B00154A9B18994201D1012300E082
S11329400023002B1CD03B6904331800FEF737F931
S11329503B69DA6A0E4B1B689A4203D93B69DA6A0F
S11329600B4B1A603B69DA6A13009B009B189B00AF
S1132970064A9A183B69043319001000FEF7C7F899
S1132980C046BD4606B080BD50E0FF1F54E0FF1FA7
S113299004E1FF1F80B582B000AF084B1B689B6940
S11329A07B60064B1B68DA6A044B1B6805218A1A94
S11329B09A617B681800BD4602B080BD50E0FF1FDD
S11329C080B500AF064B1B68002B04D0044B1B687A
S11329D05A6C01325A64024B1B681800BD4680BD14
S11329E050E0FF1F80B584B000AF7860396000F01C
S11329F045FC1C4B1B689B6C002B0ED1194B1B68B0
S1132A004C22012199543B68002B06D03B680121DC
S1132A10180000F051FA00F021FC00F041FC00F035
S1132A202DFC104B1B689B6CFB60FB68002B0CD0CF
S1132A307B68002B04D00B4B1B6800229A6404E0D3
S1132A40084B1B68FA68013A9A64064B1B684C22CF
S1132A500021995400F024FCFB681800BD4604B022
S1132A6080BDC04650E0FF1F80B586B000AFF8605F
S1132A70B9607A603B6000F001FC244B1B684C2277
S1132A809B5CDBB2022B15D0204B1B689A6CF96857
S1132A90C9430A409A641D4B1B684C220121995476
S1132AA03B68002B06D03B680121180000F004FAB3
S1132AB000F0D4FB00F0F4FB00F0E0FB7B68002B9B
S1132AC004D0124B1B689A6C7B681A600F4B1B680E
S1132AD04C229B5CDBB2022B02D000237B6108E01A
S1132AE00A4B1B689A6CB968C9430A409A6401236B
S1132AF07B61064B1B684C220021995400F0D0FBEB
S1132B007B691800BD4606B080BDC04650E0FF1F7B
S1132B1080B588B000AFF860B9603B60FB1D1A70E7
S1132B200123FB61FB68002B01D172B6FEE7FB6851
S1132B30BB6100F0A3FB3B68002B03D0BB699A6C1C
S1132B403B681A601723FB18BA694C21525C1A704F
S1132B50BB694C2202219954FB1D1B78042B22D8FB
S1132B609A002D4BD3181B689F46BB699A6CBB68AF
S1132B701A43BB699A6416E0BB699B6C5A1CBB6917
S1132B809A6410E0BB69BA689A640CE01723FB18D6
S1132B901B78022B03D0BB69BA689A6403E0002354
S1132BA0FB6100E0C0461723FB181B78012B2BD1D7
S1132BB0BB6904331800FEF702F8BB69DA6A174BE5
S1132BC01B689A4203D9BB69DA6A144B1A60BB6961
S1132BD0DA6A13009B009B189B00114A9A18BB6980
S1132BE0043319001000FDF792FFBB699B6A002BA8
S1132BF001D072B6FEE7BB69DA6A0A4B1B68DB6A6E
S1132C009A4201D900F02AFB00F04AFBFB69180044
S1132C10BD4608B080BDC046BC3C000004E1FF1FB7
S1132C2054E0FF1F50E0FF1F80B588B000AFF8608C
S1132C30B9603B60FB1D1A700123FB61FB68002B2C
S1132C4001D172B6FEE7FB68BB6100F041FB0300F3
S1132C507B613B68002B03D0BB699A6C3B681A60AC
S1132C601323FB18BA694C21525C1A70BB694C22BD
S1132C7002219954FB1D1B78042B22D89A00384B4F
S1132C80D3181B689F46BB699A6CBB681A43BB691F
S1132C909A6416E0BB699B6C5A1CBB699A6410E089
S1132CA0BB69BA689A640CE01323FB181B78022BE7
S1132CB003D0BB69BA689A6403E00023FB6100E0B7
S1132CC0C0461323FB181B78012B40D1BB699B6AB8
S1132CD0002B01D072B6FEE7224B1B68002B1DD1DE
S1132CE0BB6904331800FDF76AFFBB69DA6A1E4B3F
S1132CF01B689A4203D9BB69DA6A1B4B1A60BB6929
S1132D00DA6A13009B009B189B00184A9A18BB6947
S1132D10043319001000FDF7FAFE07E0BB6918330D
S1132D201A00134B11001800FDF7F1FEBB69DA6AB3
S1132D30104B1B68DB6A9A4209D9BB6A002B03D08B
S1132D40BB6A01221A6002E00B4B01221A607B6904
S1132D50180000F0C3FAFB691800BD4608B080BD36
S1132D60D03C000024E1FF1F04E1FF1F54E0FF1FDB
S1132D70E8E0FF1F50E0FF1F10E1FF1F80B586B0A1
S1132D8000AF786039607B68002B01D172B6FEE732
S1132D907B687B6100F09CFA03003B610F203B18C9
S1132DA07A694C21525C1A707B694C220221995435
S1132DB07B699B6C5A1C7B699A643B181B78012BBA
S1132DC040D17B699B6A002B01D072B6FEE7214B90
S1132DD01B68002B1DD17B6904331800FDF7EFFE3F
S1132DE07B69DA6A1C4B1B689A4203D97B69DA6AED
S1132DF0194B1A607B69DA6A13009B009B189B00CD
S1132E00164A9A187B69043319001000FDF77FFEF7
S1132E1007E07B6918331A00114B11001800FDF705
S1132E2076FE7B69DA6A0F4B1B68DB6A9A4209D922
S1132E303B68002B03D03B6801221A6002E00A4B76
S1132E4001221A603B69180000F048FAC046BD46EA
S1132E5006B080BD24E1FF1F04E1FF1F54E0FF1F03
S1132E60E8E0FF1F50E0FF1F10E1FF1F80B584B0B2
S1132E7000AF78607B68002B02D10E4B1B6800E02A
S1132E807B68BB6000F0FAF9BB684C229B5CDBB248
S1132E90022B06D1BB684C22002199540123FB600C
S1132EA001E00023FB6000F0FBF9FB681800BD465D
S1132EB004B080BD50E0FF1F80B584B000AF7860DF
S1132EC039601A4B1B68FB60194B1B6804331800EC
S1132ED0FDF775FEFA687B68D318BB60144B1B685A
S1132EE0BA685A60BA68FB689A4209D2114B1A68E8
S1132EF00F4B1B68043319001000FDF72AFE10E085
S1132F000D4B1A680A4B1B68043319001000FDF7B7
S1132F1020FE0A4B1B68BA689A4202D2074BBA6871
S1132F201A60C046BD4604B080BDC04600E1FF1F24
S1132F3050E0FF1FE4E0FF1FE0E0FF1F1CE1FF1F64
S1132F4080B588B000AF786000237B61FFF706F896
S1132F503D4B1B68002B04D100F0C9F83A4B012209
S1132F601A607B68002B0DD008231A007B689B181D
S1132F707B607B680722134004D07B68072293435D
S1132F8008337B607B68002B56D07B682F4A9342C2
S1132F9052D82F4BBB612E4B1B68FB6104E0FB69CD
S1132FA0BB61FB691B68FB61FB695B687A689A42D9
S1132FB003D9FB691B68002BF1D1FA69254B9A42AE
S1132FC03AD0BB691B6808229B187B61FB691A68AD
S1132FD0BB691A60FB695A687B68D31A08225200DD
S1132FE0934222D9FA697B68D318FB60FB695A685B
S1132FF07B68D21AFB685A60FB697A685A60FB687E
S11330005B68BB60124B3B6102E03B691B683B6140
S11330103B691B685B68BA689A42F6D83B691A68D0
S1133020FB681A603B69FA681A600B4B1A68FB6903
S11330305B68D21A084B1A60FEF79CFF7B69180084
S1133040BD4608B080BDC04638110020F72F0000EF
S1133050281100203011002000E0FF1F80B586B049
S113306000AF78607B683B617B68002B27D0082326
S11330705B423A69D3183B613B69FB60FEF76EFF24
S1133080FB685B68BB60104B7B6102E07B691B687B
S11330907B617B691B685B68BA689A42F6D87B6976
S11330A01A68FB681A607B69FA681A60FB685A68D8
S11330B0064B1B68D218054B1A60FEF75BFFC0462F
S11330C0BD4606B080BDC0462811002000E0FF1FA9
S11330D080B500AF024B1B681800BD4680BDC046DA
S11330E000E0FF1F80B500AFC046BD4680BD80B57F
S11330F082B000AF0D4B072293437B600C4B7A6880
S11331001A600B4B00225A600A4B0B4A5A60094B57
S113311000221A607B683B603B68074A5A603B6840
S1133120044A1A60C046BD4602B080BD30E1FF1FAC
S11331302811002030110020F82F000000000000AA
S113314080B584B000AFF860B9607A60FB68043B76
S1133150FB60FB68802252041A60FB68043BFB603E
S1133160BA68FB681A60FB68043BFB60084AFB68AA
S11331701A60FB68143BFB607A68FB681A60FB68A2
S1133180203BFB60FB681800BD4604B080BDC04610
S11331909531000080B582B000AF00237B60084BFE
S11331A01B68013301D072B6FEE772B6C0467B6875
S11331B0002BFCD0C046C046BD4602B080BDC04610
S11331C004E0FF1F80B500AFC046BD4680BD084A7D
S11331D013681868203080F30988022080F314886B
S11331E0BFF36F8F3FBCAE4608BC04BC62B6184741
S11331F050E0FF1FC04680B500AF0E4B1A680D4B60
S1133200FF2109040A431A600A4B1A68094BFF217B
S113321009060A431A6000F0A7F8074B00221A6057
S1133220FFF7D5FFFFF728F8FFF7B4FF00231800D6
S1133230BD4680BD20ED00E004E0FF1F80B500AF77
S1133240054B1A68FA239B009A4201D072B6FEE736
S1133250C046BD4680BDC04604E0FF1F80B500AF38
S1133260054B802252051A60BFF34F8FBFF36F8F57
S1133270C046BD4680BDC04604ED00E080B500AF49
S113328072B6064B1B685A1C044B1A60BFF34F8F6F
S1133290BFF36F8FC046BD4680BDC04604E0FF1F2C
S11332A080B500AF094B1B68002B01D172B6FEE755
S11332B0064B1B685A1E054B1A60044B1B68002BF7
S11332C000D162B6C046BD4680BDC04604E0FF1FC3
S11332D0EFF3108072B67047C046180080F3108870
S11332E07047C046EFF30980114B1A68203810600C
S11332F0F0C044464D4656465F46F0C008B572B627
S1133300FEF7BAFF62B60CBC116808681030F0C84A
S1133310A046A946B246BB4680F309882038F0C8C7
S11333201847C046C046C046C046C046C046C04610
S113333050E0FF1FC04680B582B000AFFFF7C8FF62
S113334003007B60FEF7E4FE031E03D0054B8022DE
S113335052051A607B681800FFF7C0FFC046BD46DF
S113336002B080BD04ED00E080B500AF044B054A17
S11333701A60054B07221A60C046BD4680BDC04690
S113338014E000E07FBB000010E000E080B500AF77
S1133390494A88235B010021D150474A474BD358FF
S11333A04549474A1343454A8B50464B1A68454B97
S11333B0802109020A431A60424B1A68414B80215A
S11333C08A431A60404B0022DA613F4B00221A62A2
S11333D03D4B00229A623C4B0022DA623A4B0022B7
S11333E05A65394B00229A65374B0022DA65374B10
S11333F000225A64354B00229A64354B00221A602D
S1133400344B00221A61334B00225A612D4B324A4D
S11334101A602C4B00225A602A4B00229A60294BD6
S11334202E4A1A61274B2E4A5A61264BC022120398
S11334309A61244B2B4ADA61224B00221A62214BF7
S113344000225A621F4B00229A621E4B0022DA624B
S11334501C4B254A1A631B4B00225A63194B00224A
S11334609A63184B0022DA63164B00221A64154B38
S113347000225A64134B11229A64124B0022DA641C
S1133480104B00221A650F4B22225A650D4B002265
S11334909A650C4B0022DA650A4B1A68094B1349EA
S11334A00A401A60074B1A68064B80210A431A60C7
S11334B0C046BD4680BDC0460070044038100000C0
S11334C0003C08000030054000A0044000B0044067
S11334D000C0044000D004406384B000800D0E009E
S11334E0600130000001100000008844FF7FFFFFEE
S11334F080B582B000AF0200FB1D1A70BB1D0A1C10
S11335001A70BB1D1B78042B03D9012000F0CAFAE2
S11335109CE1FB1D1B780F2B00D994E19A00CD4B45
S1133520D3181B689F46CC49BB1D1B78013B5B002D
S1133530CA4AD35C2022CB189B18BB221A70C649F6
S1133540BB1D1B785B00013BC44AD35C2022CB1813
S11335509B18EE221A7079E1BF49BB1D1B78013B11
S11335605B00BE4AD35C2022CB189B1800221A7041
S1133570B949BB1D1B785B00013BB84AD35C2022D0
S1133580CB189B1866221A7060E1B349BB1D1B78E7
S1133590013B5B00B14AD35C2022CB189B187722F5
S11335A01A70AD49BB1D1B785B00013BAB4AD35C71
S11335B02022CB189B18CC221A7047E1A649BB1DC8
S11335C01B78013B5B00A54AD35C2022CB189B18D7
S11335D055221A70A049BB1D1B785B00013B9F4A12
S11335E0D35C2022CB189B18EE221A702EE19A4944
S11335F0BB1D1B78013B5B00984AD35C2022CB188F
S11336009B18CC221A709449BB1D1B785B00013BAC
S1133610924AD35C2022CB189B1866221A7015E1BB
S11336208D49BB1D1B78013B5B008C4AD35C202277
S1133630CB189B18DD221A708749BB1D1B785B00D1
S1133640013B864AD35C2022CB189B18AA221A700D
S1133650FCE08149BB1D1B78013B5B007F4AD35CC6
S11336602022CB189B18FF221A707B49BB1D1B78A4
S11336705B00013B794AD35C2022CB189B18AA2219
S11336801A70E3E07449BB1D1B78013B5B00734A6D
S1133690D35C2022CB189B1800221A706E49BB1DE4
S11336A01B785B00013B6D4AD35C2022CB189B182E
S11336B0EE221A70CAE06849BB1D1B78013B5B000F
S11336C0664AD35C2022CB189B18FF221A706249E9
S11336D0BB1D1B785B00013B604AD35C2022CB18E6
S11336E09B18EE221A70B1E05B49BB1D1B78013BAD
S11336F05B005A4AD35C2022CB189B18CC221A7048
S11337005549BB1D1B785B00013B544AD35C202206
S1133710CB189B18EE221A7098E04F49BB1D1B78FA
S1133720013B5B004D4AD35C2022CB189B18EE2250
S11337301A704949BB1D1B785B00013B474AD35CA7
S11337402022CB189B18EE221A707FE04249BB1D41
S11337501B78013B5B00414AD35C2022CB189B18A9
S1133760FF221A703C49BB1D1B785B00013B3B4A9E
S1133770D35C2022CB189B1822221A7066E03649AB
S1133780BB1D1B78013B5B00344AD35C2022CB1861
S11337909B18BB221A703049BB1D1B785B00013B90
S11337A02E4AD35C2022CB189B1888221A704DE035
S11337B02949BB1D1B78013B5B00284AD35C2022AE
S11337C0CB189B1877221A702349BB1D1B785B000A
S11337D0013B224AD35C2022CB189B1866221A7024
S11337E034E01D49BB1D1B78013B5B001B4AD35CC5
S11337F02022CB189B18FF221A701749BB1D1B7877
S11338005B00013B154AD35C2022CB189B1888220D
S11338101A701BE01049BB1D1B78013B5B000F4A6B
S1133820D35C2022CB189B18EE221A700A49BB1DC8
S11338301B785B00013B094AD35C2022CB189B1800
S113384088221A7002E0012000F02CF9BD4602B073
S113385080BDC046EC3C000000300540E43C000064
S113386080B584B000AF786039600023FB603968AC
S1133870FA687B688B4202DB5B1A0132FAE7FA6072
S11338807B60FB681800BD4604B080BD80B586B07F
S113389000AF0200BB1D1A80BB1D1B882E4A934239
S11338A003D9102000F0FEF851E0BB1D1B88FA225A
S11338B0920011001800FFF7D3FF03007B61BB1DCA
S11338C01A887B69D31A64211800FFF7C9FF030023
S11338D03B61BB1D1A887B69D21A3B69D31A0A2142
S11338E01800FFF7BDFF0300FB607B69DBB2012119
S11338F01800FFF7FDFD3B69DBB202211800FFF75A
S1133900F7FDFB68DBB203211800FFF7F1FDBB1DD7
S11339101B88DAB27B69DBB2191C9B00CB1ADB0073
S1133920D9B23B69DBB264204343DBB2CB18D9B2D2
S1133930FB68DBB2181C8000C318DB18DBB2CB18A1
S1133940DBB2D31ADBB204211800FFF7D1FDC04665
S1133950BD4606B080BDC0460F27000080B582B0CA
S113396000AF0200BB1D1A80BB1D1B881B0B9BB242
S1133970DBB201211800FFF7BBFDBB1D1B881B1226
S1133980DBB20F221340DBB202211800FFF7B0FDB7
S1133990BB1D1B881B11DBB20F221340DBB20321BA
S11339A01800FFF7A5FDBB1D1B88DBB20F221340D7
S11339B0DBB204211800FFF79BFDC046BD4602B0F0
S11339C080BD80B582B000AF0200FB1D1A70BB1D24
S11339D00A1C1A70FB1D1B7863229A429B415B42AE
S11339E0DAB2BB1D1B78632199429B415B42DBB277
S11339F01343DBB2002B03D0102000F053F84BE04C
S1133A00FB1D1B780A211800FFF72AFF0300DBB215
S1133A1001211800FFF76CFDFB1D1B780A2118001B
S1133A20FFF71EFF0300DBB21A1C9200D318DB1849
S1133A30DBB2FA1D1278D31ADBB202211800FFF7A9
S1133A4057FDBB1D1B780A211800FFF709FF03006F
S1133A50DBB203211800FFF74BFDBB1D1B780A21C5
S1133A601800FFF7FDFE0300DBB21A1C9200D31806
S1133A70DB18DBB2BA1D1278D31ADBB204211800AA
S1133A80FFF736FD064A2B23D35CDBB2044A11212F
S1133A900B43D9B22B23D154C046BD4602B080BDDE
S1133AA00030054080B582B000AF0200FB1D1A70E3
S1133AB0174A4523FF21D154154A31238821D15473
S1133AC0134A27236621D154114A28230021D154B3
S1133AD00F4A55236621D1540D4A46230021D1545F
S1133AE0FB1D1B780F2B06D8FB1D1B780421180027
S1133AF0FFF7FEFC07E0064A2A230021D154044ABA
S1133B002B230021D154C046BD4602B080BDC0461F
S1133B10003005400F0052E33600009A013080E186
S1133B20030013E33F00001A10C042E2F0402DE905
S1133B30204081E20FE0CCE3103081E2106080E2AB
S1133B400E4084E02C52A0E10CE013E508C013E51C
S1133B50107013E50CE006E5103083E214E013E581
S1133B60040053E1005006E9107006E5106086E297
S1133B70F4FFFF1A01C085E20C0012E30F3002E2E9
S1133B800C1281E00320A0010CC280E00D00000AA9
S1133B900140A0E1043043E20360C3E323E1A0E178
S1133BA006608CE004304CE2045094E40450A3E535
S1133BB0060053E1FBFFFF1A01308EE2032002E20C
S1133BC003C18CE0031181E0000052E3013042E2C2
S1133BD00130831201204C12033081100300000ACB
S1133BE001C0D1E4030051E101C0E2E5FBFFFF1A8B
S1133BF0F040BDE81EFF2FE1000052E300C0A0E149
S1133C00013042E21EFF2F01013083E201204CE229
S1133C10033081E001C0D1E4030051E101C0E2E5D9
S1133C20FBFFFF1A1EFF2FE100C0A0E1013042E2BA
S1133C30F4FFFFEA5461736B446973706C617944F7
S1133C40617461005461736B437265617465310022
S1133C505461736B43726561746532005461736BB4
S1133C6043726561746533005461736B43726561BB
S1133C70746534005461736B436F6E73756D653195
S1133C80000000005461736B436F6E73756D653291
S1133C90000000005461736B436F6E73756D653380
S1133CA0000000005461736B436F6E73756D65346F
S1133CB00000000049444C4500000000A42B000013
S1133CC06A2B0000782B0000842B00008C2B000052
S1133CD0C02C0000862C0000942C0000A02C0000B6
S1133CE0A82C00002511070835260A0B26350000EC
S1133CF0583500008A350000BC350000EE35000060
S1133D00203600005236000084360000B63600002B
S1133D10E83600001A3700004C3700007E370000F8
S10F3D20B0370000E23700001438000047
S10F3D2C0DC0A0E1F8DF2DE904B04CE26A
S10F3D380DC0A0E1F8DF2DE904B04CE25E
S10B3D44F82F0000AAAAAAAAA4
S9030410E8
