S00C00006D61696E2E7372656373
S1130000F814002055070000B5070000B5070000EC
S113001000000000000000000000000000000000DC
S1130020000000000000000000000000551F000058
S1130030000000000000000075200000C720000040
S1130040550700005507000055070000550700003C
S11300500000000055070000550700005507000088
S1130060550700005507000055070000550700001C
S1130070550700005507000055070000550700000C
S113008055070000550700005507000055070000FC
S11300905507000055070000550700000000000048
S11300A055070000550700005507000055070000DC
S11300B05507000000000000550700005507000028
S1130400FFFFFFFFFFFFFFFFFFFFFFFFFEFFFFFFF9
S113041080B582B000AF0200FB1D1A70FB1D1B7873
S11304201A001F23134001229A40034B1A60C0464E
S1130430BD4602B080BDC04600E100E080B582B098
S113044000AF00237B6002E07B6801337B607B6844
S1130450034A9342F8DDC046C046BD4602B080BDA3
S11304603F420F0080B500AF044B03221A70034BC8
S113047000225A70C046BD4680BDC04600400640BA
S113048080B500AF184A194BD3581749802212017E
S11304901343164A8B50164B0422FF32DA60144B76
S11304A00422FF321A63134B5A69124B08218A4300
S11304B05A61104B5A690F4B0F490A405A611F2069
S11304C0FFF7A6FF0A4BDA68094BA02109030A4388
S11304D0DA60074B1A6B064BA02109030A431A631F
S11304E0C046BD4680BDC0460070044038100000C0
S11304F000B0044080F00F40FFEFFFFF80B500AF75
S11305000E4A88235B010021D1500C4A0C4BD3586E
S11305100A49802252011343094A8B50094B802215
S113052052005A61084B5A69074B20210A435A6109
S1130530054B20225A60C046BD4680BD0070044071
S11305403810000000C00440C0F00F4080B500AF78
S1130550024B2022DA60C046BD4680BDC0F00F4089
S113056080B500AF0F4A88235B010021D1500D4AAA
S11305700D4BD3580B498022920113430A4A8B50E6
S11305800A4B802252005A67094B5A69084B802152
S113059089050A435A61064B802292055A60C04677
S11305A0BD4680BD007004403810000000D00440F7
S11305B000F10F4080B500AF034B80229205DA6052
S11305C0C046BD4680BDC04600F10F4080B582B034
S11305D000AF7860FFF7BAFFC82000F01BFBF9E713
S11305E080B582B000AF7860FFF7E4FFFA235B00C8
S11305F0180000F00FFBF7E780B582B000AF786019
S11306000F4B1B78DBB29BB2642253439AB20D4B5F
S11306101B78DBB29BB2191C8900CB18DB189BB288
S1130620D3189AB2084B1B78DBB29BB2D3189BB297
S1130630180001F0F3FFC82000F0ECFAE0E7C04630
S11306400AE0FF1F08E0FF1F09E0FF1F80B500AFAD
S11306501F4AA023D25880235B01134018D01D4B9E
S11306601B78DBB201331C4A134004D5013B04223E
S1130670524213430133DAB2164B1A70144AA023C0
S1130680D3581349802252011343A0228B501CE0FB
S11306900F4AA023D3580822134016D00F4B1B78BF
S11306A0DBB201330C4A134004D5013B042252420D
S11306B013430133DAB2094B1A70054AA023D35805
S11306C0034908221343A0228B50C046BD4680BD77
S11306D000B0044009E0FF1F0300008008E0FF1F92
S11306E080B582B002AFFFF709FFFFF739FFFFF7CC
S11306F0C7FEFFF7B7FE01F011FD104910480023B3
S11307000193012300930023502200F001F90D49C5
S11307100D4800230193012300930023502200F08D
S1130720F7F80A490A4800230193012300930023A0
S1130730502200F0EDF800F093FAFEE7982900004B
S1130740CD050000A8290000E1050000B42900003F
S1130750F905000080B582B000AF114B7B60114BEE
S11307603B6007E07A68131D7B603B68191D3960A4
S113077012681A603A680C4B9A42F3D30B4B3B60F5
S113078004E03B681A1D3A6000221A603A68084B7C
S11307909A42F6D3FFF7A4FFC046BD4602B080BD1F
S11307A0542A000000E0FF1F08E0FF1F08E0FF1FBD
S11307B0F810002080B500AFFEE7C04680B582B0D7
S11307C000AF78607B6808331A007B685A607B68E6
S11307D0012252429A607B6808331A007B68DA600F
S11307E07B6808331A007B681A617B6800221A60F0
S11307F0C046BD4602B080BD80B582B000AF78600F
S11308007B6800221A61C046BD4602B080BD80B537
S113081084B000AF786039607B685B68FB603B68DC
S1130820FA685A60FB689A683B689A60FB689B6840
S11308303A685A60FB683A689A603B687A681A6159
S11308407B681B685A1C7B681A60C046BD4604B0AE
S113085080BD80B584B000AF786039603B681B68A8
S1130860BB60BB68013303D17B681B69FB600CE090
S11308707B680833FB6002E0FB685B68FB60FB6835
S11308805B681B68BA689A42F6D2FB685A683B6890
S11308905A603B685B683A689A603B68FA689A6099
S11308A0FB683A685A603B687A681A617B681B681F
S11308B05A1C7B681A60C046BD4604B080BD80B532
S11308C084B000AF78607B681B69FB607B685B6801
S11308D07A6892689A607B689B687A6852685A6002
S11308E0FB685B687A689A4203D17B689A68FB6804
S11308F05A607B6800221A61FB681B685A1EFB68F9
S11309001A60FB681B681800BD4604B080BD000077
S113091090B58DB004AFF860B9603B60BB1D1A8020
S1130920BB1D1B889B00180001F0D0F903007B61FC
S11309307B69002B10D0502001F0C8F90300FB6143
S1130940FB69002B03D0FB697A691A6306E07B69B3
S1130950180001F049FA01E00023FB61FB69002B58
S113096016D0BB1D1A883C68B968F8680023039345
S1130970FB6902937B6B01933B6B0093230000F0B4
S11309800FF8FB69180000F085F80123BB6102E051
S113099001235B42BB61BB691800BD4609B090BD31
S11309A080B586B000AFF860B9607A603B60BB6A1E
S11309B01A6B7B6836498C4663449B00D3183B61B1
S11309C03B69072293433B613B690722134001D0F3
S11309D072B6FEE700237B6113E0BA687B69D31823
S11309E01878BA6A34217B69D3185B18021C1A7010
S11309F0BA687B69D3181B78002B06D07B69013356
S1130A007B617B69092BE8D900E0C046BB6A3D22C3
S1130A10002199543B6A042B01D904233B62BB6A2D
S1130A203A6ADA62BB6A3A6A1A64BB6A00225A6496
S1130A30BB6A04331800FFF7DFFEBB6A18331800E3
S1130A40FFF7DAFEBB6ABA6A1A613B6A0522D21A58
S1130A50BB6A9A61BB6ABA6A5A62BB6A00229A6428
S1130A60BB6A4C22002199543A68F9683B69180022
S1130A7001F02EFA0200BB6A1A607B6A002B02D0D6
S1130A807B6ABA6A1A60C046BD4606B080BDC046DD
S1130A90FFFFFF3F80B582B000AF786001F0B6FA87
S1130AA0284B1B685A1C274B1A60274B1B68002BCA
S1130AB009D1254B7A681A60224B1B68012B10D18F
S1130AC000F082FC0DE0214B1B68002B09D11E4B6A
S1130AD01B68DA6A7B68DB6A9A4202D81A4B7A6826
S1130AE01A601B4B1B685A1C194B1A607B68DA6A24
S1130AF0184B1B689A4203D97B68DA6A154B1A6053
S1130B007B68DA6A13009B009B189B00124A9A18B0
S1130B107B68043319001000FFF779FE01F088FAAE
S1130B200A4B1B68002B08D0074B1B68DA6A7B68EA
S1130B30DB6A9A4201D201F059FAC046BD4602B0BE
S1130B4080BDC046B8E0FF1F0CE0FF1FC4E0FF1FDC
S1130B50D4E0FF1FC0E0FF1F10E0FF1F80B586B088
S1130B6000AF7860396000237B617B68002B01D182
S1130B7072B6FEE73B68002B01D172B6FEE7234B49
S1130B801B68002B01D072B6FEE700F0ADF8204BD5
S1130B901B683B617B681B683A68D318FB607B6801
S1130BA01B683A699A420BD27B681B68FA689A42BE
S1130BB011D2FA683B699A420DD901237B610AE09C
S1130BC07B681B68FA689A4203D3FA683B699A42C5
S1130BD001D901237B617B68FA681A607B69002B69
S1130BE006D0FA683B69D31A0021180001F02AF8EC
S1130BF000F086F80300BB60BB68002B01D101F054
S1130C00F5F9C046BD4606B080BDC046E0E0FF1F12
S1130C10BCE0FF1F80B584B000AF78600023FB60A8
S1130C207B68002B10D00D4B1B68002B01D072B6D3
S1130C30FEE700F059F87B680021180001F002F883
S1130C4000F05EF80300FB60FB68002B01D101F0AB
S1130C50CDF9C046BD4604B080BDC046E0E0FF1FEC
S1130C6080B584B002AF13491348144B0193002399
S1130C70009300235022FFF74BFE03007B607B6848
S1130C80012B0DD172B60E4B012252421A600D4B4C
S1130C9001221A600C4B00221A6001F074F904E07E
S1130CA07B68013301D172B6FEE7C046BD4602B08F
S1130CB080BDC046C4290000A9130000DCE0FF1F6A
S1130CC0D8E0FF1FC4E0FF1FBCE0FF1F80B500AFEA
S1130CD072B6044B00221A6001F078F9C046BD4692
S1130CE080BDC046C4E0FF1F80B500AF034B1B6846
S1130CF05A1C024B1A60C046BD4680BDE0E0FF1F8F
S1130D0080B584B000AF0023FB600023BB603A4B86
S1130D101B68002B01D172B6FEE701F077F9364B60
S1130D201B685A1E344B1A60334B1B68002B5BD173
S1130D30324B1B68002B57D02FE0314BDB68DB684C
S1130D40FB60FB6818331800FFF7B9FDFB68043338
S1130D501800FFF7B4FDFB68DA6A2A4B1B689A4255
S1130D6003D9FB68DA6A274B1A60FB68DA6A130056
S1130D709B009B189B00244A9A18FB6804331900B3
S1130D801000FFF744FDFB68DA6A204B1B68DB6A3E
S1130D909A4202D31E4B01221A60194B1B68002B86
S1130DA0CBD1FB68002B01D000F04BFB194B1B6827
S1130DB07B607B68002B0FD000F070F8031E02D01C
S1130DC0134B01221A607B68013B7B607B68002B1C
S1130DD0F2D1104B00221A600D4B1B68002B03D07C
S1130DE00123BB6001F002F901F022F9BB6818008D
S1130DF0BD4604B080BDC046E0E0FF1FB8E0FF1F61
S1130E00A4E0FF1FC0E0FF1F10E0FF1F0CE0FF1F66
S1130E10CCE0FF1FC8E0FF1F80B582B000AF044BD9
S1130E201B687B607B681800BD4602B080BDC0466D
S1130E30BCE0FF1F80B582B000AF00237B60044B91
S1130E401B683B603B681800BD4602B080BDC046CD
S1130E50BCE0FF1F80B500AF024B1B681800BD4605
S1130E6080BDC046B8E0FF1F80B584B000AF786095
S1130E707B68002B02D1084B1B6800E07B68FB6099
S1130E80FB68002B01D172B6FEE7FB68343318000F
S1130E90BD4604B080BDC0460CE0FF1F80B586B0DF
S1130EA000AF00237B614C4B1B68002B00D083E018
S1130EB04A4B1B6801333B61484B3A691A603B69F2
S1130EC0002B17D1464B1B681B68002B01D072B650
S1130ED0FEE7434B1B68FB60424B1A68404B1A60A9
S1130EE0404BFA681A60404B1B685A1C3E4B1A6010
S1130EF000F0A7FA3D4B1B683A699A424ED3384B2F
S1130F001B681B68002B01D1012300E00023002B88
S1130F1004D0364B012252421A603FE0304B1B682A
S1130F20DB68DB68BB60BB685B687B603A697B68D5
S1130F309A4203D22D4B7A681A602FE0BB680433BF
S1130F401800FFF7BCFCBB689B6A002B04D0BB688D
S1130F5018331800FFF7B3FCBB68DA6A244B1B682C
S1130F609A4203D9BB68DA6A214B1A60BB68DA6A11
S1130F7013009B009B189B001E4A9A18BB680433FD
S1130F8019001000FFF743FCBB68DA6A1A4B1B68B0
S1130F90DB6A9A42B3D301237B61B0E7164B1B682B
S1130FA0DA6A144913009B009B189B005B58012BC1
S1130FB007D901237B6104E0104B1B685A1C0F4BBB
S1130FC01A600F4B1B68002B01D001237B617B69E6
S1130FD01800BD4606B080BDE0E0FF1FBCE0FF1F67
S1130FE09CE0FF1FA0E0FF1FD0E0FF1FD8E0FF1F21
S1130FF0C0E0FF1F10E0FF1F0CE0FF1FC8E0FF1F51
S1131000CCE0FF1F80B582B000AF224B1B68002BE1
S113101003D0214B01221A6037E01F4B00221A60D3
S11310201E4B1B687B6007E07B68002B01D172B606
S1131030FEE77B68013B7B6019497A6813009B00DB
S11310409B189B005B58002BEED07A6813009B0022
S11310509B189B00124A9B183B603B685B685A686C
S11310603B685A603B685A683B6808339A4204D12B
S11310703B685B685A683B685A603B685B68DA683F
S1131080084B1A60054B7A681A60C046BD4602B028
S113109080BDC046E0E0FF1FCCE0FF1FC0E0FF1FA3
S11310A010E0FF1F0CE0FF1F80B582B000AF786036
S11310B039607B68002B01D172B6FEE7084B1B68D0
S11310C018331A007B6811001800FFF7C2FB3B6855
S11310D00121180000F0B6FDC046BD4602B080BD37
S11310E00CE0FF1F80B584B000AFF860B9607A608F
S11310F0FB68002B01D172B6FEE70F4B1B68002B77
S113110001D172B6FEE70D4B1B68BA68802109064F
S11311100A439A61094B1B6818331A00FB681100D3
S11311201800FFF774FB7B680121180000F08AFDAA
S1131130C046BD4604B080BDE0E0FF1F0CE0FF1FC9
S113114080B584B000AF78607B68DB68DB68BB6027
S1131150BB68002B01D172B6FEE7BB6818331800D8
S1131160FFF7ADFB1E4B1B68002B1DD1BB6804337E
S11311701800FFF7A4FBBB68DA6A1A4B1B689A4293
S113118003D9BB68DA6A174B1A60BB68DA6A1300C2
S11311909B009B189B00144A9A18BB6804331900DF
S11311A01000FFF734FB07E0BB6818331A000F4B3D
S11311B011001800FFF72BFBBB68DA6A0C4B1B68A5
S11311C0DB6A9A4205D90123FB600A4B01221A60AB
S11311D001E00023FB60FB681800BD4604B080BD3D
S11311E0E0E0FF1FC0E0FF1F10E0FF1FA4E0FF1FAF
S11311F00CE0FF1FCCE0FF1F80B584B000AF786027
S11312003960214B1B68002B01D172B6FEE73B68A5
S1131210802212061A437B681A607B68DB68FB60D5
S1131220FB68002B01D172B6FEE77B681800FFF75C
S113123046FBFB6804331800FFF741FBFB68DA6ADE
S1131240124B1B689A4203D9FB68DA6A0F4B1A6087
S1131250FB68DA6A13009B009B189B000C4A9A18DF
S1131260FB68043319001000FFF7D1FAFB68DA6A4F
S1131270084B1B68DB6A9A4202D9074B01221A60A9
S1131280C046BD4604B080BDE0E0FF1FC0E0FF1FC4
S113129010E0FF1F0CE0FF1FCCE0FF1F80B582B001
S11312A000AF78607B68002B01D172B6FEE700F0D6
S11312B0ADFE074B1A687B681A60064B1A687B6898
S11312C05A6000F0B5FEC046BD4602B080BDC046BF
S11312D0D0E0FF1FBCE0FF1F80B582B000AF786094
S11312E0054B1A687B681A60044B1A687B685A605D
S11312F0C046BD4602B080BDD0E0FF1FBCE0FF1F6A
S113130080B586B000AF786039607B68002B01D16E
S113131072B6FEE73B68002B01D172B6FEE700F01F
S113132075FE1A4B1B683B617B685B683A69D31A8C
S1131330FB607B681A68164B1B689A4207D07B686F
S11313405B683A699A4202D301237B6116E03B68E9
S11313501B68FA689A420CD23B681A68FB68D21A76
S11313603B681A607B681800FFF7B6FF00237B61B7
S113137004E03B6800221A6001237B6100F058FE00
S11313807B691800BD4606B080BDC046BCE0FF1FA7
S1131390D0E0FF1F80B500AF024B01221A60C046A7
S11313A0BD4680BDCCE0FF1F80B582B000AF786041
S11313B000F042F8034B1B68012BF9D900F016FE2C
S11313C0F6E7C04610E0FF1F80B582B000AF0023EF
S11313D07B600CE07A6813009B009B189B00104A0A
S11313E09B181800FFF7EAF97B6801337B607B6880
S11313F0042BEFD90B4B1800FFF7E0F90A4B180048
S1131400FFF7DCF9094B1800FFF7D8F9084B054A38
S11314101A60084B044A1A60C046BD4602B080BD3B
S113142010E0FF1F74E0FF1F88E0FF1FA4E0FF1F10
S11314309CE0FF1FA0E0FF1F80B500AFC046BD4683
S113144080BD80B582B000AF0D4B1B681B68002BBC
S113145001D1012300E00023002B04D0094B012219
S113146052421A6008E0064B1B68DB68DB687B604D
S11314707B685A68034B1A60C046BD4602B080BD03
S11314809CE0FF1FD8E0FF1F80B582B000AF044B83
S11314901B687B607B681800BD4602B080BDC046F7
S11314A00CE0FF1F80B584B000AF78607B68BB6040
S11314B00023FB607B68002B56D0BB68DA6A2D4B97
S11314C01B68DB6A9A4246D2BB689B69002B06DB29
S11314D0284B1B68DB6A0522D21ABB689A61BB6879
S11314E05969BB68DA6A13009B009B189B00224A67
S11314F09B18994201D1012300E00023002B22D044
S1131500BB6804331800FFF7DAF91A4B1B68DA6A70
S1131510BB68DA62BB68DA6A184B1B689A4203D963
S1131520BB68DA6A154B1A60BB68DA6A13009B0061
S11315309B189B00104A9A18BB68043319001000CA
S1131540FFF765F904E00B4B1B68DA6ABB68DA62E3
S11315500123FB6008E0BB681A6C064B1B68DB6A5E
S11315609A4201D20123FB60FB681800BD4604B017
S113157080BDC0460CE0FF1F10E0FF1FC0E0FF1F4E
S113158080B584B000AF78607B68BB600023FB60EB
S11315907B68002B44D0254B1B68BA689A4201D063
S11315A072B6FEE7BB685B6C002B01D172B6FEE736
S11315B0BB685B6C5A1EBB685A64BB68DA6ABB685A
S11315C01B6C9A422CD0BB685B6C002B28D1BB6887
S11315D004331800FFF773F9BB681A6CBB68DA624E
S11315E0BB68DB6A0522D21ABB689A61BB68DA6AF7
S11315F00F4B1B689A4203D9BB68DA6A0C4B1A601A
S1131600BB68DA6A13009B009B189B00094A9A186E
S1131610BB68043319001000FFF7F9F80123FB60DD
S1131620FB681800BD4604B080BDC0460CE0FF1F37
S1131630C0E0FF1F10E0FF1F80B586B000AF7860E8
S113164039607B683B610123FB607B68002B5DD0C4
S11316503B695B6C002B01D172B6FEE73B691B6CE6
S11316603A689A4202D93B687B6102E03B691B6C91
S11316707B613B69DB6A7A699A4247D03B695B6C60
S1131680FA689A4242D1234B1B683A699A4201D1C3
S113169072B6FEE73B69DB6ABB603B697A69DA6272
S11316A03B699B69002B04DB7B690522D21A3B69E9
S11316B09A613B695969BA6813009B009B189B00A7
S11316C0154A9B18994201D1012300E00023002B05
S11316D01CD03B6904331800FFF7F1F83B69DA6A60
S11316E00E4B1B689A4203D93B69DA6A0B4B1A60AA
S11316F03B69DA6A13009B009B189B00064A9A1800
S11317003B69043319001000FFF781F8C046BD4659
S113171006B080BD0CE0FF1F10E0FF1FC0E0FF1FFC
S113172080B582B000AF084B1B689B697B60064B99
S11317301B68DA6A044B1B6805218A1A9A617B6864
S11317401800BD4602B080BD0CE0FF1F80B500AF9D
S1131750064B1B68002B04D0044B1B685A6C0132E7
S11317605A64024B1B681800BD4680BD0CE0FF1F85
S113177080B584B000AF7860396000F047FC1C4B42
S11317801B689B6C002B0ED1194B1B684C2201214A
S113179099543B68002B06D03B680121180000F0E7
S11317A051FA00F023FC00F043FC00F02FFC104B36
S11317B01B689B6CFB60FB68002B0CD07B68002BC8
S11317C004D00B4B1B6800229A6404E0084B1B688E
S11317D0FA68013A9A64064B1B684C22002199541A
S11317E000F026FCFB681800BD4604B080BDC0466E
S11317F00CE0FF1F80B586B000AFF860B9607A6076
S11318003B6000F003FC244B1B684C229B5CDBB266
S1131810022B15D0204B1B689A6CF968C9430A4007
S11318209A641D4B1B684C22012199543B68002B80
S113183006D03B680121180000F004FA00F0D6FB42
S113184000F0F6FB00F0E2FB7B68002B04D0124BA7
S11318501B689A6C7B681A600F4B1B684C229B5C5C
S1131860DBB2022B02D000237B6108E00A4B1B6829
S11318709A6CB968C9430A409A6401237B61064B98
S11318801B684C220021995400F0D2FB7B6918009C
S1131890BD4606B080BDC0460CE0FF1F80B588B0D1
S11318A000AFF860B9603B60FB1D1A700123FB6157
S11318B0FB68002B01D172B6FEE7FB68BB6100F048
S11318C0A5FB3B68002B03D0BB699A6C3B681A608C
S11318D01723FB18BA694C21525C1A70BB694C225D
S11318E002219954FB1D1B78042B22D89A002D4BFE
S11318F0D3181B689F46BB699A6CBB681A43BB69C3
S11319009A6416E0BB699B6C5A1CBB699A6410E02C
S1131910BB69BA689A640CE01723FB181B78022B86
S113192003D0BB69BA689A6403E00023FB6100E05A
S1131930C0461723FB181B78012B2BD1BB6904333A
S11319401800FEF7BCFFBB69DA6A174B1B689A42A2
S113195003D9BB69DA6A144B1A60BB69DA6A1300EB
S11319609B009B189B00114A9A18BB690433190009
S11319701000FEF74CFFBB699B6A002B01D072B6C6
S1131980FEE7BB69DA6A0A4B1B68DB6A9A4201D933
S113199000F02CFB00F04CFBFB691800BD4608B0BE
S11319A080BDC046CC290000C0E0FF1F10E0FF1F2F
S11319B00CE0FF1F80B588B000AFF860B9603B60F1
S11319C0FB1D1A700123FB61FB68002B01D172B669
S11319D0FEE7FB68BB6100F043FB03007B613B68EF
S11319E0002B03D0BB699A6C3B681A601323FB1865
S11319F0BA694C21525C1A70BB694C220221995479
S1131A00FB1D1B78042B22D89A00384BD3181B6873
S1131A109F46BB699A6CBB681A43BB699A6416E01B
S1131A20BB699B6C5A1CBB699A6410E0BB69BA68B9
S1131A309A640CE01323FB181B78022B03D0BB69B8
S1131A40BA689A6403E00023FB6100E0C0461323F4
S1131A50FB181B78012B40D1BB699B6A002B01D07A
S1131A6072B6FEE7224B1B68002B1DD1BB69043301
S1131A701800FEF724FFBB69DA6A1E4B1B689A4202
S1131A8003D9BB69DA6A1B4B1A60BB69DA6A1300B3
S1131A909B009B189B00184A9A18BB6904331900D1
S1131AA01000FEF7B4FE07E0BB6918331A00134BAD
S1131AB011001800FEF7ABFEBB69DA6A104B1B6815
S1131AC0DB6A9A4209D9BB6A002B03D0BB6A0122A4
S1131AD01A6002E00B4B01221A607B69180000F0C7
S1131AE0C5FAFB691800BD4608B080BDE0290000B6
S1131AF0E0E0FF1FC0E0FF1F10E0FF1FA4E0FF1F96
S1131B000CE0FF1FCCE0FF1F80B586B000AF78600B
S1131B1039607B68002B01D172B6FEE77B687B617C
S1131B2000F09EFA03003B610F203B187A694C21B8
S1131B30525C1A707B694C22022199547B699B6C1C
S1131B405A1C7B699A643B181B78012B40D17B6932
S1131B509B6A002B01D072B6FEE7214B1B68002B59
S1131B601DD17B6904331800FEF7A9FE7B69DA6A8C
S1131B701C4B1B689A4203D97B69DA6A194B1A60B9
S1131B807B69DA6A13009B009B189B00164A9A181B
S1131B907B69043319001000FEF739FE07E07B6906
S1131BA018331A00114B11001800FEF730FE7B6940
S1131BB0DA6A0F4B1B68DB6A9A4209D93B68002B2F
S1131BC003D03B6801221A6002E00A4B01221A602A
S1131BD03B69180000F04AFAC046BD4606B080BD15
S1131BE0E0E0FF1FC0E0FF1F10E0FF1FA4E0FF1FA5
S1131BF00CE0FF1FCCE0FF1F80B584B000AF78601D
S1131C007B68002B02D10E4B1B6800E07B68BB6035
S1131C1000F0FCF9BB684C229B5CDBB2022B06D1C2
S1131C20BB684C22002199540123FB6001E000238E
S1131C30FB6000F0FDF9FB681800BD4604B080BDF0
S1131C400CE0FF1F80B584B000AF786039601A4B98
S1131C501B68FB60194B1B6804331800FEF72FFE4A
S1131C60FA687B68D318BB60144B1B68BA685A6067
S1131C70BA68FB689A4209D2114B1A680F4B1B6869
S1131C80043319001000FEF7E4FD10E00D4B1A6850
S1131C900A4B1B68043319001000FEF7DAFD0A4BE7
S1131CA01B68BA689A4202D2074BBA681A60C046E7
S1131CB0BD4604B080BDC046BCE0FF1F0CE0FF1F62
S1131CC0A0E0FF1F9CE0FF1FD8E0FF1F80B588B095
S1131CD000AF786000237B61FFF706F83D4B1B687B
S1131CE0002B04D100F0C9F83A4B01221A607B683A
S1131CF0002B0DD008231A007B689B187B607B683F
S1131D000722134004D07B680722934308337B6087
S1131D107B68002B56D07B682F4A934252D82F4BB6
S1131D20BB612E4B1B68FB6104E0FB69BB61FB6973
S1131D301B68FB61FB695B687A689A4203D9FB699B
S1131D401B68002BF1D1FA69254B9A423AD0BB6942
S1131D501B6808229B187B61FB691A68BB691A60BF
S1131D60FB695A687B68D31A08225200934222D92D
S1131D70FA697B68D318FB60FB695A687B68D21ADE
S1131D80FB685A60FB697A685A60FB685B68BB60F1
S1131D90124B3B6102E03B691B683B613B691B687A
S1131DA05B68BA689A42F6D83B691A68FB681A609D
S1131DB03B69FA681A600B4B1A68FB695B68D21AB4
S1131DC0084B1A60FEF79CFF7B691800BD4608B0FB
S1131DD080BDC046F4100020F72F0000E41000205E
S1131DE0EC10002000E0FF1F80B586B000AF7860E3
S1131DF07B683B617B68002B27D008235B423A69F0
S1131E00D3183B613B69FB60FEF76EFFFB685B68C0
S1131E10BB60104B7B6102E07B691B687B617B6963
S1131E201B685B68BA689A42F6D87B691A68FB68D3
S1131E301A607B69FA681A60FB685A68064B1B686B
S1131E40D218054B1A60FEF75BFFC046BD4606B0CC
S1131E5080BDC046E410002000E0FF1F80B500AF45
S1131E60024B1B681800BD4680BDC04600E0FF1F42
S1131E7080B500AFC046BD4680BD80B582B000AF1E
S1131E800D4B072293437B600C4B7A681A600B4B13
S1131E9000225A600A4B0B4A5A60094B00221A600E
S1131EA07B683B603B68074A5A603B68044A1A6097
S1131EB0C046BD4602B080BDECE0FF1FE410002028
S1131EC0EC100020F82F00000000000000000000CB
S1131ED080B584B000AFF860B9607A60FB68043BF9
S1131EE0FB60FB68802252041A60FB68043BFB60C1
S1131EF0BA68FB681A60FB68043BFB60084AFB682D
S1131F001A60FB68143BFB607A68FB681A60FB6824
S1131F10203BFB60FB681800BD4604B080BDC04692
S1131F20251F000080B582B000AF00237B60084B02
S1131F301B68013301D072B6FEE772B6C0467B68F7
S1131F40002BFCD0C046C046BD4602B080BDC04692
S1131F5004E0FF1F80B500AFC046BD4680BD084AFF
S1131F6013681868203080F30988022080F31488ED
S1131F70BFF36F8F3FBCAE4608BC04BC62B61847C3
S1131F800CE0FF1FC04680B500AF0E4B1A680D4B26
S1131F90FF2109040A431A600A4B1A68094BFF21FE
S1131FA009060A431A6000F0A7F8074B00221A60DA
S1131FB0FFF7D5FFFFF726F8FFF7B4FF002318005B
S1131FC0BD4680BD20ED00E004E0FF1F80B500AFFA
S1131FD0054B1A68FA239B009A4201D072B6FEE7B9
S1131FE0C046BD4680BDC04604E0FF1F80B500AFBB
S1131FF0054B802252051A60BFF34F8FBFF36F8FDA
S1132000C046BD4680BDC04604ED00E080B500AFCB
S113201072B6064B1B685A1C044B1A60BFF34F8FF1
S1132020BFF36F8FC046BD4680BDC04604E0FF1FAE
S113203080B500AF094B1B68002B01D172B6FEE7D7
S1132040064B1B685A1E054B1A60044B1B68002B79
S113205000D162B6C046BD4680BDC04604E0FF1F45
S1132060EFF3108072B67047C046180080F31088F2
S11320707047C046EFF30980114B1A68203810608E
S1132080F0C044464D4656465F46F0C008B572B6A9
S1132090FEF7B8FF62B60CBC116808681030F0C8CF
S11320A0A046A946B246BB4680F309882038F0C84A
S11320B01847C046C046C046C046C046C046C04693
S11320C00CE0FF1FC04680B582B000AFFFF7C8FF29
S11320D003007B60FEF7E2FE031E03D0054B802263
S11320E052051A607B681800FFF7C0FFC046BD4662
S11320F002B080BD04ED00E080B500AF044B054A9A
S11321001A60054B07221A60C046BD4680BDC04612
S113211014E000E07FBB000010E000E080B500AFF9
S1132120494A88235B010021D150474A474BD35881
S11321304549474A1343454A8B50464B1A68454B19
S1132140802109020A431A60424B1A68414B8021DC
S11321508A431A60404B0022DA613F4B00221A6224
S11321603D4B00229A623C4B0022DA623A4B002239
S11321705A65394B00229A65374B0022DA65374B92
S113218000225A64354B00229A64354B00221A60AF
S1132190344B00221A61334B00225A612D4B324AD0
S11321A01A602C4B00225A602A4B00229A60294B59
S11321B02E4A1A61274B2E4A5A61264BC02212031B
S11321C09A61244B2B4ADA61224B00221A62214B7A
S11321D000225A621F4B00229A621E4B0022DA62CE
S11321E01C4B254A1A631B4B00225A63194B0022CD
S11321F09A63184B0022DA63164B00221A64154BBB
S113220000225A64134B11229A64124B0022DA649E
S1132210104B00221A650F4B22225A650D4B0022E7
S11322209A650C4B0022DA650A4B1A68094B13496C
S11322300A401A60074B1A68064B80210A431A6049
S1132240C046BD4680BDC046007004403810000042
S1132250003C08000030054000A0044000B00440E9
S113226000C0044000D004406384B000800D0E0020
S1132270600130000001100000008844FF7FFFFF70
S113228080B582B000AF0200FB1D1A70BB1D0A1C92
S11322901A70BB1D1B78042B03D9012000F0B8FA77
S11322A09CE1FB1D1B780F2B00D994E19A00CD4BC8
S11322B0D3181B689F46CC49BB1D1B78013B5B00B0
S11322C0CA4AD35C2022CB189B18BB221A70C64979
S11322D0BB1D1B785B00013BC44AD35C2022CB1896
S11322E09B18EE221A7079E1BF49BB1D1B78013B94
S11322F05B00BE4AD35C2022CB189B1800221A70C4
S1132300B949BB1D1B785B00013BB84AD35C202252
S1132310CB189B1866221A7060E1B349BB1D1B7869
S1132320013B5B00B14AD35C2022CB189B18772277
S11323301A70AD49BB1D1B785B00013BAB4AD35CF3
S11323402022CB189B18CC221A7047E1A649BB1D4A
S11323501B78013B5B00A54AD35C2022CB189B1859
S113236055221A70A049BB1D1B785B00013B9F4A94
S1132370D35C2022CB189B18EE221A702EE19A49C6
S1132380BB1D1B78013B5B00984AD35C2022CB1811
S11323909B18CC221A709449BB1D1B785B00013B2F
S11323A0924AD35C2022CB189B1866221A7015E13E
S11323B08D49BB1D1B78013B5B008C4AD35C2022FA
S11323C0CB189B18DD221A708749BB1D1B785B0054
S11323D0013B864AD35C2022CB189B18AA221A7090
S11323E0FCE08149BB1D1B78013B5B007F4AD35C49
S11323F02022CB189B18FF221A707B49BB1D1B7827
S11324005B00013B794AD35C2022CB189B18AA229B
S11324101A70E3E07449BB1D1B78013B5B00734AEF
S1132420D35C2022CB189B1800221A706E49BB1D66
S11324301B785B00013B6D4AD35C2022CB189B18B0
S1132440EE221A70CAE06849BB1D1B78013B5B0091
S1132450664AD35C2022CB189B18FF221A7062496B
S1132460BB1D1B785B00013B604AD35C2022CB1868
S11324709B18EE221A70B1E05B49BB1D1B78013B2F
S11324805B005A4AD35C2022CB189B18CC221A70CA
S11324905549BB1D1B785B00013B544AD35C202289
S11324A0CB189B18EE221A7098E04F49BB1D1B787D
S11324B0013B5B004D4AD35C2022CB189B18EE22D3
S11324C01A704949BB1D1B785B00013B474AD35C2A
S11324D02022CB189B18EE221A707FE04249BB1DC4
S11324E01B78013B5B00414AD35C2022CB189B182C
S11324F0FF221A703C49BB1D1B785B00013B3B4A21
S1132500D35C2022CB189B1822221A7066E036492D
S1132510BB1D1B78013B5B00344AD35C2022CB18E3
S11325209B18BB221A703049BB1D1B785B00013B12
S11325302E4AD35C2022CB189B1888221A704DE0B7
S11325402949BB1D1B78013B5B00284AD35C202230
S1132550CB189B1877221A702349BB1D1B785B008C
S1132560013B224AD35C2022CB189B1866221A70A6
S113257034E01D49BB1D1B78013B5B001B4AD35C47
S11325802022CB189B18FF221A701749BB1D1B78F9
S11325905B00013B154AD35C2022CB189B18882290
S11325A01A701BE01049BB1D1B78013B5B000F4AEE
S11325B0D35C2022CB189B18EE221A700A49BB1D4B
S11325C01B785B00013B094AD35C2022CB189B1883
S11325D088221A7002E0012000F01AF9BD4602B008
S11325E080BDC046FC29000000300540F4290000ED
S11325F080B584B000AF786039600023FB6039682F
S1132600FA687B688B4202DB5B1A0132FAE7FA60F4
S11326107B60FB681800BD4604B080BD80B586B001
S113262000AF0200BB1D1A80BB1D1B882E4A9342BB
S113263003D9102000F0ECF851E0BB1D1B88FA22EE
S1132640920011001800FFF7D3FF03007B61BB1D4C
S11326501A887B69D31A64211800FFF7C9FF0300A5
S11326603B61BB1D1A887B69D21A3B69D31A0A21C4
S11326701800FFF7BDFF0300FB607B69DBB201219B
S11326801800FFF7FDFD3B69DBB202211800FFF7DC
S1132690F7FDFB68DBB203211800FFF7F1FDBB1D5A
S11326A01B88DAB27B69DBB2191C9B00CB1ADB00F6
S11326B0D9B23B69DBB264204343DBB2CB18D9B255
S11326C0FB68DBB2181C8000C318DB18DBB2CB1824
S11326D0DBB2D31ADBB204211800FFF7D1FDC046E8
S11326E0BD4606B080BDC0460F27000080B582B04D
S11326F000AF0200BB1D1A80BB1D1B881B0B9BB2C5
S1132700DBB201211800FFF7BBFDBB1D1B881B12A8
S1132710DBB20F221340DBB202211800FFF7B0FD39
S1132720BB1D1B881B11DBB20F221340DBB203213C
S11327301800FFF7A5FDBB1D1B88DBB20F22134059
S1132740DBB204211800FFF79BFDC046BD4602B072
S113275080BD80B582B000AF0200FB1D1A70BB1DA6
S11327600A1C1A70FB1D1B7863229A429B415B4230
S1132770DAB2BB1D1B78632199429B415B42DBB2F9
S11327801343DBB2002B03D0102000F041F839E0F2
S1132790FB1D1B780A211800FFF72AFF0300DBB298
S11327A001211800FFF76CFDFB1D1B780A2118009E
S11327B000F0E0F80B00DBB202211800FFF760FD27
S11327C0BB1D1B780A211800FFF712FF0300DBB2C0
S11327D003211800FFF754FDBB1D1B780A211800C4
S11327E000F0C8F80B00DBB204211800FFF748FD25
S11327F0064A2B23D35CDBB2044A11210B43D9B222
S11328002B23D154C046BD4602B080BD00300540E4
S113281080B582B000AF0200FB1D1A70174A452331
S1132820FF21D154154A31238821D154134A272337
S11328306621D154114A28230021D1540F4A55232B
S11328406621D1540D4A46230021D154FB1D1B7827
S11328500F2B06D8FB1D1B7804211800FFF710FD71
S113286007E0064A2A230021D154044A2B230021DD
S1132870D154C046BD4602B080BDC04600300540BC
S1132880012051E21EFF2F013600003A010050E101
S11328902200009A020011E12300000A0E0211E353
S11328A08111A0010830A0030130A013010251E3FB
S11328B0000051310112A0310332A031FAFFFF3A76
S11328C0020151E3000051318110A0318330A03165
S11328D0FAFFFF3A0020A0E3010050E1010040208C
S11328E003208221A10050E1A1004020A3208221E5
S11328F0210150E12101402023218221A10150E145
S1132900A1014020A3218221000050E32332B01111
S11329102112A011EFFFFF1A0200A0E11EFF2FE118
S11329200100A0030000A0131EFF2FE1010851E3E2
S11329302118A0211020A0230020A033010C51E372
S11329402114A02108208222100051E32112A02189
S113295004208222040051E303208282A120829079
S11329603002A0E11EFF2FE1000050E30000E0135D
S1132970070000EA000051E3FAFFFF0A03402DE9D3
S1132980BEFFFFEB0640BDE8920003E0031041E008
S11329901EFF2FE11EFF2FE15461736B4C656447EA
S11329A07265656E000000005461736B4C6564527F
S11329B0656400005461736B446973706C6179449D
S11329C06174610049444C45000000003019000066
S11329D0F61800000419000010190000181900006E
S11329E04C1A0000121A0000201A00002C1A0000D1
S11329F0341A00002511070835260A0BB6220000F8
S1132A00E82200001A2300004C2300007E2300006B
S1132A10B0230000E2230000142400004624000038
S1132A2078240000AA240000DC2400000E25000005
S10F2A304025000072250000A4250000D1
S10F2A3C0DC0A0E1F8DF2DE904B04CE26D
S10F2A480DC0A0E1F8DF2DE904B04CE261
S10B2A54F82F0000AAAAAAAAA7
S9030410E8
